{
  "contractName": "SafeMath",
  "abi": [
    {
      "inputs": [
        {
          "internalType": "uint256",
          "name": "a",
          "type": "uint256"
        },
        {
          "internalType": "uint256",
          "name": "b",
          "type": "uint256"
        }
      ],
      "name": "safeAdd",
      "outputs": [
        {
          "internalType": "uint256",
          "name": "c",
          "type": "uint256"
        }
      ],
      "stateMutability": "pure",
      "type": "function"
    },
    {
      "inputs": [
        {
          "internalType": "uint256",
          "name": "a",
          "type": "uint256"
        },
        {
          "internalType": "uint256",
          "name": "b",
          "type": "uint256"
        }
      ],
      "name": "safeSub",
      "outputs": [
        {
          "internalType": "uint256",
          "name": "c",
          "type": "uint256"
        }
      ],
      "stateMutability": "pure",
      "type": "function"
    },
    {
      "inputs": [
        {
          "internalType": "uint256",
          "name": "a",
          "type": "uint256"
        },
        {
          "internalType": "uint256",
          "name": "b",
          "type": "uint256"
        }
      ],
      "name": "safeMul",
      "outputs": [
        {
          "internalType": "uint256",
          "name": "c",
          "type": "uint256"
        }
      ],
      "stateMutability": "pure",
      "type": "function"
    },
    {
      "inputs": [
        {
          "internalType": "uint256",
          "name": "a",
          "type": "uint256"
        },
        {
          "internalType": "uint256",
          "name": "b",
          "type": "uint256"
        }
      ],
      "name": "safeDiv",
      "outputs": [
        {
          "internalType": "uint256",
          "name": "c",
          "type": "uint256"
        }
      ],
      "stateMutability": "pure",
      "type": "function"
    }
  ],
  "bytecode": "0x608060405234801561001057600080fd5b506103ff806100206000396000f3fe608060405234801561001057600080fd5b506004361061004c5760003560e01c8063a293d1e814610051578063b5931f7c14610081578063d05c78da146100b1578063e6cb9013146100e1575b600080fd5b61006b600480360381019061006691906101c6565b610111565b6040516100789190610215565b60405180910390f35b61009b600480360381019061009691906101c6565b610134565b6040516100a89190610215565b60405180910390f35b6100cb60048036038101906100c691906101c6565b610156565b6040516100d89190610215565b60405180910390f35b6100fb60048036038101906100f691906101c6565b61018e565b6040516101089190610215565b60405180910390f35b60008282111561012057600080fd5b818361012c9190610311565b905092915050565b600080821161014257600080fd5b818361014e9190610286565b905092915050565b6000818361016491906102b7565b9050600083148061017f575081838261017d9190610286565b145b61018857600080fd5b92915050565b6000818361019c9190610230565b9050828110156101ab57600080fd5b92915050565b6000813590506101c0816103b2565b92915050565b600080604083850312156101dd576101dc6103ad565b5b60006101eb858286016101b1565b92505060206101fc858286016101b1565b9150509250929050565b61020f81610345565b82525050565b600060208201905061022a6000830184610206565b92915050565b600061023b82610345565b915061024683610345565b9250827fffffffffffffffffffffffffffffffffffffffffffffffffffffffffffffffff0382111561027b5761027a61034f565b5b828201905092915050565b600061029182610345565b915061029c83610345565b9250826102ac576102ab61037e565b5b828204905092915050565b60006102c282610345565b91506102cd83610345565b9250817fffffffffffffffffffffffffffffffffffffffffffffffffffffffffffffffff04831182151516156103065761030561034f565b5b828202905092915050565b600061031c82610345565b915061032783610345565b92508282101561033a5761033961034f565b5b828203905092915050565b6000819050919050565b7f4e487b7100000000000000000000000000000000000000000000000000000000600052601160045260246000fd5b7f4e487b7100000000000000000000000000000000000000000000000000000000600052601260045260246000fd5b600080fd5b6103bb81610345565b81146103c657600080fd5b5056fea2646970667358221220b0dfefd9b832e5a442319ab49f0d09a07960377bc24d38eebca38a8f8171d4ce64736f6c63430008060033",
  "immutableReferences": {},
  "source": "/**\r\n *Submitted for verification at Etherscan.io on 2021-07-19\r\n*/\r\n\r\n// File: contracts/3_Ballot.sol\r\n\r\npragma solidity ^0.8.6; \r\n\r\nimport \"./interfaces/erc20interface.sol\";\r\n\r\ncontract SafeMath {\r\n    function safeAdd(uint a, uint b) public pure returns (uint c) {\r\n        c = a + b;\r\n        require(c >= a);\r\n    }\r\n    function safeSub(uint a, uint b) public pure returns (uint c) {\r\n        require(b <= a);\r\n        c = a - b;\r\n    }\r\n    function safeMul(uint a, uint b) public pure returns (uint c) {\r\n        c = a * b;\r\n        require(a == 0 || c / a == b);\r\n    }\r\n    function safeDiv(uint a, uint b) public pure returns (uint c) {\r\n        require(b > 0);\r\n        c = a / b;\r\n    }\r\n}\r\n\r\nabstract contract ApproveAndCallFallBack {\r\n    function receiveApproval(address from, uint256 tokens, address token, bytes memory data) public virtual;\r\n}\r\n\r\ncontract Owned {\r\n    address public owner;\r\n    address public newOwner;\r\n\r\n    event OwnershipTransferred(address indexed _from, address indexed _to);\r\n\r\n    constructor()  {\r\n        owner = msg.sender;\r\n    }\r\n\r\n    modifier onlyOwner {\r\n        require(msg.sender == owner);\r\n        _;\r\n    }\r\n\r\n    function transferOwnership(address _newOwner) public onlyOwner {\r\n        newOwner = _newOwner;\r\n    }\r\n    function acceptOwnership() public {\r\n        require(msg.sender == newOwner);\r\n        emit OwnershipTransferred(owner, newOwner);\r\n        owner = newOwner;\r\n        newOwner = address(0);\r\n    }\r\n}\r\n\r\ncontract FucksToken is ERC20Interface, Owned, SafeMath {\r\n    string public symbol;\r\n    string public  name;\r\n    address mywallet;\r\n    uint8 public decimals;\r\n    uint public _totalSupply;\r\n\r\n    mapping(address => uint) balances;\r\n    mapping(address => mapping(address => uint)) allowed;\r\n\r\n\r\n    constructor()  {\r\n        symbol = \"Petro\";\r\n        name = \"Petro Token\";\r\n        decimals = 18;\r\n        _totalSupply = 10**26;\r\n        mywallet = 0x25f70ADa13731bDFC0C26C6A45e4d04CF6c5f2fB;\r\n        balances[mywallet] = _totalSupply;\r\n        emit Transfer(address(0), mywallet, _totalSupply);\r\n    }\r\n\r\n    function totalSupply() override public view returns (uint) {\r\n        return _totalSupply  - balances[address(0)];\r\n    }\r\n\r\n    function balanceOf(address tokenOwner) override public view returns (uint balance) {\r\n        return balances[tokenOwner];\r\n    }\r\n\r\n\r\n    function transfer(address to, uint tokens) override public returns (bool success) {\r\n        balances[msg.sender] = safeSub(balances[msg.sender], tokens);\r\n        balances[to] = safeAdd(balances[to], tokens);\r\n        emit Transfer(msg.sender, to, tokens);\r\n        return true;\r\n    }\r\n\r\n\r\n    function approve(address spender, uint tokens) override public returns (bool success) {\r\n        allowed[msg.sender][spender] = tokens;\r\n        emit Approval(msg.sender, spender, tokens);\r\n        return true;\r\n    }\r\n\r\n\r\n    function transferFrom(address from, address to, uint tokens) override public returns (bool success) {\r\n        balances[from] = safeSub(balances[from], tokens);\r\n        allowed[from][msg.sender] = safeSub(allowed[from][msg.sender], tokens);\r\n        balances[to] = safeAdd(balances[to], tokens);\r\n        emit Transfer(from, to, tokens);\r\n        return true;\r\n    }\r\n\r\n\r\n    function allowance(address tokenOwner, address spender) override public view returns (uint remaining) {\r\n        return allowed[tokenOwner][spender];\r\n    }\r\n\r\n\r\n    function approveAndCall(address spender, uint tokens, bytes memory data) public returns (bool success) {\r\n        allowed[msg.sender][spender] = tokens;\r\n        emit Approval(msg.sender, spender, tokens);\r\n        ApproveAndCallFallBack(spender).receiveApproval(msg.sender, tokens, address(this), data);\r\n        return true;\r\n    }\r\n\r\n\r\n    function transferAnyERC20Token(address tokenAddress, uint tokens) public onlyOwner returns (bool success) {\r\n        return ERC20Interface(tokenAddress).transfer(owner, tokens);\r\n    }\r\n}",
  "sourcePath": "/home/allinone/Proga/Solidity/erc20/contracts/petro.sol",
  "compiler": {
    "name": "solc",
    "version": "0.8.6+commit.11564f7e.Emscripten.clang"
  },
  "schemaVersion": "3.3.4",
  "updatedAt": "2021-07-26T11:00:25.005Z",
  "devdoc": {
    "kind": "dev",
    "methods": {},
    "version": 1
  },
  "userdoc": {
    "kind": "user",
    "methods": {},
    "version": 1
  }
}